{"contracts/SIO.sol":{"SIO":{"abi":[{"inputs":[],"stateMutability":"nonpayable","type":"constructor"},{"stateMutability":"payable","type":"fallback"},{"inputs":[{"internalType":"bool","name":"status","type":"bool"}],"name":"changeContractStatus","outputs":[],"stateMutability":"nonpayable","type":"function"},{"inputs":[{"internalType":"uint256","name":"newFee","type":"uint256"}],"name":"changeFee","outputs":[],"stateMutability":"nonpayable","type":"function"},{"inputs":[],"name":"contractStatus","outputs":[{"internalType":"bool","name":"","type":"bool"}],"stateMutability":"view","type":"function"},{"inputs":[],"name":"fee","outputs":[{"internalType":"uint256","name":"","type":"uint256"}],"stateMutability":"view","type":"function"},{"inputs":[{"internalType":"address","name":"account","type":"address"},{"internalType":"address","name":"token","type":"address"}],"name":"getBalance","outputs":[{"internalType":"uint256","name":"","type":"uint256"}],"stateMutability":"view","type":"function"},{"inputs":[],"name":"owner","outputs":[{"internalType":"address","name":"","type":"address"}],"stateMutability":"view","type":"function"},{"inputs":[{"internalType":"address","name":"newOwner","type":"address"}],"name":"transferOwnership","outputs":[],"stateMutability":"nonpayable","type":"function"},{"inputs":[{"internalType":"address","name":"token","type":"address"}],"name":"withdraw","outputs":[],"stateMutability":"nonpayable","type":"function"},{"stateMutability":"payable","type":"receive"}],"evm":{"bytecode":{"linkReferences":{},"object":"6080604052348015600f57600080fd5b5033600160006101000a81548173ffffffffffffffffffffffffffffffffffffffff021916908373ffffffffffffffffffffffffffffffffffffffff16021790555060018060146101000a81548160ff02191690831515021790555066038d7ea4c680006000819055506116a8806100886000396000f3fe60806040526004361061007f5760003560e01c8063c6ee20d21161004e578063c6ee20d214610adc578063d4fac45d14610b07578063ddca3f4314610b44578063f2fde38b14610b6f576100e5565b80634b6c36b514610a3657806351cff8d914610a5f5780636a1db1bf14610a885780638da5cb5b14610ab1576100e5565b366100e5576000340361009157600380fd5b6040517fd0e30db000000000000000000000000000000000000000000000000000000000815260008060048334737b79995e5f793a07bc00c21412e50ecae098e7f96113885a03f1806100e357600380fd5b005b600160149054906101000a900460ff16610134576040517f08c379a000000000000000000000000000000000000000000000000000000000815260040161012b90610f12565b60405180910390fd5b60003490506000803560f81c9050606060005b8260ff168160ff1610156109e0576000806000600160358502013560601c9250601560358502013591506035808502013560f81c9050806000811461019357600181146101c8576101f9565b604051955060028652737b79995e5f793a07bc00c21412e50ecae098e7f96020870152836040870152606086016040526101f9565b604051955060028652836020870152737b79995e5f793a07bc00c21412e50ecae098e7f96040870152606086016040525b50600060ff168160ff16036105f85781876102149190610f6b565b96506040517fd0e30db000000000000000000000000000000000000000000000000000000000815260008060048334737b79995e5f793a07bc00c21412e50ecae098e7f96113885a03f18061026857600380fd5b5050600073c532a74256d3db42d0bf7a0400fefdbad769400873ffffffffffffffffffffffffffffffffffffffff1663d06ca61f84886040518363ffffffff1660e01b81526004016102bb92919061109e565b600060405180830381865afa1580156102d8573d6000803e3d6000fd5b505050506040513d6000823e3d601f19601f820116820180604052508101906103019190611267565b600181518110610314576103136112b0565b5b602002602001015190506000737e0987e5b3a30e3f2828572bb659a548460a300373ffffffffffffffffffffffffffffffffffffffff1663e6a4390588600081518110610364576103636112b0565b5b6020026020010151896001815181106103805761037f6112b0565b5b60200260200101516040518363ffffffff1660e01b81526004016103a59291906112ee565b602060405180830381865afa1580156103c2573d6000803e3d6000fd5b505050506040513d601f19601f820116820180604052508101906103e69190611343565b905060008173ffffffffffffffffffffffffffffffffffffffff16630dfe16816040518163ffffffff1660e01b8152600401602060405180830381865afa158015610435573d6000803e3d6000fd5b505050506040513d601f19601f820116820180604052508101906104599190611343565b90506000737b79995e5f793a07bc00c21412e50ecae098e7f973ffffffffffffffffffffffffffffffffffffffff168273ffffffffffffffffffffffffffffffffffffffff16146104ab5760006104ae565b60015b90507fa9059cbb00000000000000000000000000000000000000000000000000000000607c52826080528560a0526000806044607c6000737b79995e5f793a07bc00c21412e50ecae098e7f96113885a03f18061050a57600380fd5b508273ffffffffffffffffffffffffffffffffffffffff1663022c0d9f60008360ff161461053957600061053b565b855b60018460ff161461054d57600061054f565b865b33600067ffffffffffffffff81111561056b5761056a6110f8565b5b6040519080825280601f01601f19166020018201604052801561059d5781602001600182028036833780820191505090505b506040518563ffffffff1660e01b81526004016105bd94939291906113ef565b600060405180830381600087803b1580156105d757600080fd5b505af11580156105eb573d6000803e3d6000fd5b50505050505050506109d0565b600160ff168160ff160361099857600073c532a74256d3db42d0bf7a0400fefdbad769400873ffffffffffffffffffffffffffffffffffffffff1663d06ca61f84886040518363ffffffff1660e01b815260040161065792919061109e565b600060405180830381865afa158015610674573d6000803e3d6000fd5b505050506040513d6000823e3d601f19601f8201168201806040525081019061069d9190611267565b6001815181106106b0576106af6112b0565b5b602002602001015190506000737e0987e5b3a30e3f2828572bb659a548460a300373ffffffffffffffffffffffffffffffffffffffff1663e6a4390588600081518110610700576106ff6112b0565b5b60200260200101518960018151811061071c5761071b6112b0565b5b60200260200101516040518363ffffffff1660e01b81526004016107419291906112ee565b602060405180830381865afa15801561075e573d6000803e3d6000fd5b505050506040513d601f19601f820116820180604052508101906107829190611343565b905060008173ffffffffffffffffffffffffffffffffffffffff16630dfe16816040518163ffffffff1660e01b8152600401602060405180830381865afa1580156107d1573d6000803e3d6000fd5b505050506040513d601f19601f820116820180604052508101906107f59190611343565b90506000737b79995e5f793a07bc00c21412e50ecae098e7f973ffffffffffffffffffffffffffffffffffffffff168273ffffffffffffffffffffffffffffffffffffffff161461084757600161084a565b60005b90507f23b872dd00000000000000000000000000000000000000000000000000000000607c52336080528260a0528560c0526000806064607c6000737b79995e5f793a07bc00c21412e50ecae098e7f96113885a03f1806108aa57600380fd5b508273ffffffffffffffffffffffffffffffffffffffff1663022c0d9f60008360ff16146108d95760006108db565b855b60018460ff16146108ed5760006108ef565b865b33600067ffffffffffffffff81111561090b5761090a6110f8565b5b6040519080825280601f01601f19166020018201604052801561093d5781602001600182028036833780820191505090505b506040518563ffffffff1660e01b815260040161095d94939291906113ef565b600060405180830381600087803b15801561097757600080fd5b505af115801561098b573d6000803e3d6000fd5b50505050505050506109cf565b600260ff168160ff16036109ce5781876109b29190610f6b565b965060008060008085876113885a03f1806109cc57600380fd5b505b5b5b5050508080600101915050610147565b508160ff166000546109f2919061143b565b831015610a34576040517f08c379a0000000000000000000000000000000000000000000000000000000008152600401610a2b906114c9565b60405180910390fd5b005b348015610a4257600080fd5b50610a5d6004803603810190610a589190611521565b610b98565b005b348015610a6b57600080fd5b50610a866004803603810190610a819190611563565b610c0f565b005b348015610a9457600080fd5b50610aaf6004803603810190610aaa91906115a5565b610d2b565b005b348015610abd57600080fd5b50610ac6610d8f565b604051610ad391906115d2565b60405180910390f35b348015610ae857600080fd5b50610af1610db5565b604051610afe91906115fc565b60405180910390f35b348015610b1357600080fd5b50610b2e6004803603810190610b299190611617565b610dc8565b604051610b3b9190611657565b60405180910390f35b348015610b5057600080fd5b50610b59610e11565b604051610b669190611657565b60405180910390f35b348015610b7b57600080fd5b50610b966004803603810190610b919190611563565b610e17565b005b600160009054906101000a900473ffffffffffffffffffffffffffffffffffffffff1673ffffffffffffffffffffffffffffffffffffffff163373ffffffffffffffffffffffffffffffffffffffff1614610bf257600080fd5b80600160146101000a81548160ff02191690831515021790555050565b600160009054906101000a900473ffffffffffffffffffffffffffffffffffffffff1673ffffffffffffffffffffffffffffffffffffffff163373ffffffffffffffffffffffffffffffffffffffff1614610c6957600080fd5b7f70a0823100000000000000000000000000000000000000000000000000000000607c5230608052602060006024607c846113885a03fa80610caa57600380fd5b6000805103610cb857600380fd5b6000517fa9059cbb00000000000000000000000000000000000000000000000000000000607c52336080528060a0526000806044607c6000876113885a03f1915081610d0357600380fd5b60004714610d265760008060008047336113885a03f1915081610d2557600380fd5b5b505050565b600160009054906101000a900473ffffffffffffffffffffffffffffffffffffffff1673ffffffffffffffffffffffffffffffffffffffff163373ffffffffffffffffffffffffffffffffffffffff1614610d8557600080fd5b8060008190555050565b600160009054906101000a900473ffffffffffffffffffffffffffffffffffffffff1681565b600160149054906101000a900460ff1681565b60007f70a0823100000000000000000000000000000000000000000000000000000000607c5282608052602060006024607c856113885a03fa80610e0b57600380fd5b60206000f35b60005481565b600160009054906101000a900473ffffffffffffffffffffffffffffffffffffffff1673ffffffffffffffffffffffffffffffffffffffff163373ffffffffffffffffffffffffffffffffffffffff1614610e7157600080fd5b80600160006101000a81548173ffffffffffffffffffffffffffffffffffffffff021916908373ffffffffffffffffffffffffffffffffffffffff16021790555050565b600082825260208201905092915050565b7f4d61696e74656e616e6365000000000000000000000000000000000000000000600082015250565b6000610efc600b83610eb5565b9150610f0782610ec6565b602082019050919050565b60006020820190508181036000830152610f2b81610eef565b9050919050565b6000819050919050565b7f4e487b7100000000000000000000000000000000000000000000000000000000600052601160045260246000fd5b6000610f7682610f32565b9150610f8183610f32565b9250828203905081811115610f9957610f98610f3c565b5b92915050565b610fa881610f32565b82525050565b600081519050919050565b600082825260208201905092915050565b6000819050602082019050919050565b600073ffffffffffffffffffffffffffffffffffffffff82169050919050565b600061100582610fda565b9050919050565b61101581610ffa565b82525050565b6000611027838361100c565b60208301905092915050565b6000602082019050919050565b600061104b82610fae565b6110558185610fb9565b935061106083610fca565b8060005b83811015611091578151611078888261101b565b975061108383611033565b925050600181019050611064565b5085935050505092915050565b60006040820190506110b36000830185610f9f565b81810360208301526110c58184611040565b90509392505050565b6000604051905090565b600080fd5b600080fd5b600080fd5b6000601f19601f8301169050919050565b7f4e487b7100000000000000000000000000000000000000000000000000000000600052604160045260246000fd5b611130826110e7565b810181811067ffffffffffffffff8211171561114f5761114e6110f8565b5b80604052505050565b60006111626110ce565b905061116e8282611127565b919050565b600067ffffffffffffffff82111561118e5761118d6110f8565b5b602082029050602081019050919050565b600080fd5b6111ad81610f32565b81146111b857600080fd5b50565b6000815190506111ca816111a4565b92915050565b60006111e36111de84611173565b611158565b905080838252602082019050602084028301858111156112065761120561119f565b5b835b8181101561122f578061121b88826111bb565b845260208401935050602081019050611208565b5050509392505050565b600082601f83011261124e5761124d6110e2565b5b815161125e8482602086016111d0565b91505092915050565b60006020828403121561127d5761127c6110d8565b5b600082015167ffffffffffffffff81111561129b5761129a6110dd565b5b6112a784828501611239565b91505092915050565b7f4e487b7100000000000000000000000000000000000000000000000000000000600052603260045260246000fd5b6112e881610ffa565b82525050565b600060408201905061130360008301856112df565b61131060208301846112df565b9392505050565b61132081610ffa565b811461132b57600080fd5b50565b60008151905061133d81611317565b92915050565b600060208284031215611359576113586110d8565b5b60006113678482850161132e565b91505092915050565b600081519050919050565b600082825260208201905092915050565b60005b838110156113aa57808201518184015260208101905061138f565b60008484015250505050565b60006113c182611370565b6113cb818561137b565b93506113db81856020860161138c565b6113e4816110e7565b840191505092915050565b60006080820190506114046000830187610f9f565b6114116020830186610f9f565b61141e60408301856112df565b818103606083015261143081846113b6565b905095945050505050565b600061144682610f32565b915061145183610f32565b925082820261145f81610f32565b9150828204841483151761147657611475610f3c565b5b5092915050565b7f466565206e6f7420706169640000000000000000000000000000000000000000600082015250565b60006114b3600c83610eb5565b91506114be8261147d565b602082019050919050565b600060208201905081810360008301526114e2816114a6565b9050919050565b60008115159050919050565b6114fe816114e9565b811461150957600080fd5b50565b60008135905061151b816114f5565b92915050565b600060208284031215611537576115366110d8565b5b60006115458482850161150c565b91505092915050565b60008135905061155d81611317565b92915050565b600060208284031215611579576115786110d8565b5b60006115878482850161154e565b91505092915050565b60008135905061159f816111a4565b92915050565b6000602082840312156115bb576115ba6110d8565b5b60006115c984828501611590565b91505092915050565b60006020820190506115e760008301846112df565b92915050565b6115f6816114e9565b82525050565b600060208201905061161160008301846115ed565b92915050565b6000806040838503121561162e5761162d6110d8565b5b600061163c8582860161154e565b925050602061164d8582860161154e565b9150509250929050565b600060208201905061166c6000830184610f9f565b9291505056fea264697066735822122086b0c02cce9c7e4c2c9b26cfcb8931e2ad0d17e92782fcdef017b8a4e29d46d964736f6c634300081c0033","opcodes":"PUSH1 0x80 PUSH1 0x40 MSTORE CALLVALUE DUP1 ISZERO PUSH1 0xF JUMPI PUSH1 0x0 DUP1 REVERT JUMPDEST POP CALLER PUSH1 0x1 PUSH1 0x0 PUSH2 0x100 EXP DUP2 SLOAD DUP2 PUSH20 0xFFFFFFFFFFFFFFFFFFFFFFFFFFFFFFFFFFFFFFFF MUL NOT AND SWAP1 DUP4 PUSH20 0xFFFFFFFFFFFFFFFFFFFFFFFFFFFFFFFFFFFFFFFF AND MUL OR SWAP1 SSTORE POP PUSH1 0x1 DUP1 PUSH1 0x14 PUSH2 0x100 EXP DUP2 SLOAD DUP2 PUSH1 0xFF MUL NOT AND SWAP1 DUP4 ISZERO ISZERO MUL OR SWAP1 SSTORE POP PUSH7 0x38D7EA4C68000 PUSH1 0x0 DUP2 SWAP1 SSTORE POP PUSH2 0x16A8 DUP1 PUSH2 0x88 PUSH1 0x0 CODECOPY PUSH1 0x0 RETURN INVALID PUSH1 0x80 PUSH1 0x40 MSTORE PUSH1 0x4 CALLDATASIZE LT PUSH2 0x7F JUMPI PUSH1 0x0 CALLDATALOAD PUSH1 0xE0 SHR DUP1 PUSH4 0xC6EE20D2 GT PUSH2 0x4E JUMPI DUP1 PUSH4 0xC6EE20D2 EQ PUSH2 0xADC JUMPI DUP1 PUSH4 0xD4FAC45D EQ PUSH2 0xB07 JUMPI DUP1 PUSH4 0xDDCA3F43 EQ PUSH2 0xB44 JUMPI DUP1 PUSH4 0xF2FDE38B EQ PUSH2 0xB6F JUMPI PUSH2 0xE5 JUMP JUMPDEST DUP1 PUSH4 0x4B6C36B5 EQ PUSH2 0xA36 JUMPI DUP1 PUSH4 0x51CFF8D9 EQ PUSH2 0xA5F JUMPI DUP1 PUSH4 0x6A1DB1BF EQ PUSH2 0xA88 JUMPI DUP1 PUSH4 0x8DA5CB5B EQ PUSH2 0xAB1 JUMPI PUSH2 0xE5 JUMP JUMPDEST CALLDATASIZE PUSH2 0xE5 JUMPI PUSH1 0x0 CALLVALUE SUB PUSH2 0x91 JUMPI PUSH1 0x3 DUP1 REVERT JUMPDEST PUSH1 0x40 MLOAD PUSH32 0xD0E30DB000000000000000000000000000000000000000000000000000000000 DUP2 MSTORE PUSH1 0x0 DUP1 PUSH1 0x4 DUP4 CALLVALUE PUSH20 0x7B79995E5F793A07BC00C21412E50ECAE098E7F9 PUSH2 0x1388 GAS SUB CALL DUP1 PUSH2 0xE3 JUMPI PUSH1 0x3 DUP1 REVERT JUMPDEST STOP JUMPDEST PUSH1 0x1 PUSH1 0x14 SWAP1 SLOAD SWAP1 PUSH2 0x100 EXP SWAP1 DIV PUSH1 0xFF AND PUSH2 0x134 JUMPI PUSH1 0x40 MLOAD PUSH32 0x8C379A000000000000000000000000000000000000000000000000000000000 DUP2 MSTORE PUSH1 0x4 ADD PUSH2 0x12B SWAP1 PUSH2 0xF12 JUMP JUMPDEST PUSH1 0x40 MLOAD DUP1 SWAP2 SUB SWAP1 REVERT JUMPDEST PUSH1 0x0 CALLVALUE SWAP1 POP PUSH1 0x0 DUP1 CALLDATALOAD PUSH1 0xF8 SHR SWAP1 POP PUSH1 0x60 PUSH1 0x0 JUMPDEST DUP3 PUSH1 0xFF AND DUP2 PUSH1 0xFF AND LT ISZERO PUSH2 0x9E0 JUMPI PUSH1 0x0 DUP1 PUSH1 0x0 PUSH1 0x1 PUSH1 0x35 DUP6 MUL ADD CALLDATALOAD PUSH1 0x60 SHR SWAP3 POP PUSH1 0x15 PUSH1 0x35 DUP6 MUL ADD CALLDATALOAD SWAP2 POP PUSH1 0x35 DUP1 DUP6 MUL ADD CALLDATALOAD PUSH1 0xF8 SHR SWAP1 POP DUP1 PUSH1 0x0 DUP2 EQ PUSH2 0x193 JUMPI PUSH1 0x1 DUP2 EQ PUSH2 0x1C8 JUMPI PUSH2 0x1F9 JUMP JUMPDEST PUSH1 0x40 MLOAD SWAP6 POP PUSH1 0x2 DUP7 MSTORE PUSH20 0x7B79995E5F793A07BC00C21412E50ECAE098E7F9 PUSH1 0x20 DUP8 ADD MSTORE DUP4 PUSH1 0x40 DUP8 ADD MSTORE PUSH1 0x60 DUP7 ADD PUSH1 0x40 MSTORE PUSH2 0x1F9 JUMP JUMPDEST PUSH1 0x40 MLOAD SWAP6 POP PUSH1 0x2 DUP7 MSTORE DUP4 PUSH1 0x20 DUP8 ADD MSTORE PUSH20 0x7B79995E5F793A07BC00C21412E50ECAE098E7F9 PUSH1 0x40 DUP8 ADD MSTORE PUSH1 0x60 DUP7 ADD PUSH1 0x40 MSTORE JUMPDEST POP PUSH1 0x0 PUSH1 0xFF AND DUP2 PUSH1 0xFF AND SUB PUSH2 0x5F8 JUMPI DUP2 DUP8 PUSH2 0x214 SWAP2 SWAP1 PUSH2 0xF6B JUMP JUMPDEST SWAP7 POP PUSH1 0x40 MLOAD PUSH32 0xD0E30DB000000000000000000000000000000000000000000000000000000000 DUP2 MSTORE PUSH1 0x0 DUP1 PUSH1 0x4 DUP4 CALLVALUE PUSH20 0x7B79995E5F793A07BC00C21412E50ECAE098E7F9 PUSH2 0x1388 GAS SUB CALL DUP1 PUSH2 0x268 JUMPI PUSH1 0x3 DUP1 REVERT JUMPDEST POP POP PUSH1 0x0 PUSH20 0xC532A74256D3DB42D0BF7A0400FEFDBAD7694008 PUSH20 0xFFFFFFFFFFFFFFFFFFFFFFFFFFFFFFFFFFFFFFFF AND PUSH4 0xD06CA61F DUP5 DUP9 PUSH1 0x40 MLOAD DUP4 PUSH4 0xFFFFFFFF AND PUSH1 0xE0 SHL DUP2 MSTORE PUSH1 0x4 ADD PUSH2 0x2BB SWAP3 SWAP2 SWAP1 PUSH2 0x109E JUMP JUMPDEST PUSH1 0x0 PUSH1 0x40 MLOAD DUP1 DUP4 SUB DUP2 DUP7 GAS STATICCALL ISZERO DUP1 ISZERO PUSH2 0x2D8 JUMPI RETURNDATASIZE PUSH1 0x0 DUP1 RETURNDATACOPY RETURNDATASIZE PUSH1 0x0 REVERT JUMPDEST POP POP POP POP PUSH1 0x40 MLOAD RETURNDATASIZE PUSH1 0x0 DUP3 RETURNDATACOPY RETURNDATASIZE PUSH1 0x1F NOT PUSH1 0x1F DUP3 ADD AND DUP3 ADD DUP1 PUSH1 0x40 MSTORE POP DUP2 ADD SWAP1 PUSH2 0x301 SWAP2 SWAP1 PUSH2 0x1267 JUMP JUMPDEST PUSH1 0x1 DUP2 MLOAD DUP2 LT PUSH2 0x314 JUMPI PUSH2 0x313 PUSH2 0x12B0 JUMP JUMPDEST JUMPDEST PUSH1 0x20 MUL PUSH1 0x20 ADD ADD MLOAD SWAP1 POP PUSH1 0x0 PUSH20 0x7E0987E5B3A30E3F2828572BB659A548460A3003 PUSH20 0xFFFFFFFFFFFFFFFFFFFFFFFFFFFFFFFFFFFFFFFF AND PUSH4 0xE6A43905 DUP9 PUSH1 0x0 DUP2 MLOAD DUP2 LT PUSH2 0x364 JUMPI PUSH2 0x363 PUSH2 0x12B0 JUMP JUMPDEST JUMPDEST PUSH1 0x20 MUL PUSH1 0x20 ADD ADD MLOAD DUP10 PUSH1 0x1 DUP2 MLOAD DUP2 LT PUSH2 0x380 JUMPI PUSH2 0x37F PUSH2 0x12B0 JUMP JUMPDEST JUMPDEST PUSH1 0x20 MUL PUSH1 0x20 ADD ADD MLOAD PUSH1 0x40 MLOAD DUP4 PUSH4 0xFFFFFFFF AND PUSH1 0xE0 SHL DUP2 MSTORE PUSH1 0x4 ADD PUSH2 0x3A5 SWAP3 SWAP2 SWAP1 PUSH2 0x12EE JUMP JUMPDEST PUSH1 0x20 PUSH1 0x40 MLOAD DUP1 DUP4 SUB DUP2 DUP7 GAS STATICCALL ISZERO DUP1 ISZERO PUSH2 0x3C2 JUMPI RETURNDATASIZE PUSH1 0x0 DUP1 RETURNDATACOPY RETURNDATASIZE PUSH1 0x0 REVERT JUMPDEST POP POP POP POP PUSH1 0x40 MLOAD RETURNDATASIZE PUSH1 0x1F NOT PUSH1 0x1F DUP3 ADD AND DUP3 ADD DUP1 PUSH1 0x40 MSTORE POP DUP2 ADD SWAP1 PUSH2 0x3E6 SWAP2 SWAP1 PUSH2 0x1343 JUMP JUMPDEST SWAP1 POP PUSH1 0x0 DUP2 PUSH20 0xFFFFFFFFFFFFFFFFFFFFFFFFFFFFFFFFFFFFFFFF AND PUSH4 0xDFE1681 PUSH1 0x40 MLOAD DUP2 PUSH4 0xFFFFFFFF AND PUSH1 0xE0 SHL DUP2 MSTORE PUSH1 0x4 ADD PUSH1 0x20 PUSH1 0x40 MLOAD DUP1 DUP4 SUB DUP2 DUP7 GAS STATICCALL ISZERO DUP1 ISZERO PUSH2 0x435 JUMPI RETURNDATASIZE PUSH1 0x0 DUP1 RETURNDATACOPY RETURNDATASIZE PUSH1 0x0 REVERT JUMPDEST POP POP POP POP PUSH1 0x40 MLOAD RETURNDATASIZE PUSH1 0x1F NOT PUSH1 0x1F DUP3 ADD AND DUP3 ADD DUP1 PUSH1 0x40 MSTORE POP DUP2 ADD SWAP1 PUSH2 0x459 SWAP2 SWAP1 PUSH2 0x1343 JUMP JUMPDEST SWAP1 POP PUSH1 0x0 PUSH20 0x7B79995E5F793A07BC00C21412E50ECAE098E7F9 PUSH20 0xFFFFFFFFFFFFFFFFFFFFFFFFFFFFFFFFFFFFFFFF AND DUP3 PUSH20 0xFFFFFFFFFFFFFFFFFFFFFFFFFFFFFFFFFFFFFFFF AND EQ PUSH2 0x4AB JUMPI PUSH1 0x0 PUSH2 0x4AE JUMP JUMPDEST PUSH1 0x1 JUMPDEST SWAP1 POP PUSH32 0xA9059CBB00000000000000000000000000000000000000000000000000000000 PUSH1 0x7C MSTORE DUP3 PUSH1 0x80 MSTORE DUP6 PUSH1 0xA0 MSTORE PUSH1 0x0 DUP1 PUSH1 0x44 PUSH1 0x7C PUSH1 0x0 PUSH20 0x7B79995E5F793A07BC00C21412E50ECAE098E7F9 PUSH2 0x1388 GAS SUB CALL DUP1 PUSH2 0x50A JUMPI PUSH1 0x3 DUP1 REVERT JUMPDEST POP DUP3 PUSH20 0xFFFFFFFFFFFFFFFFFFFFFFFFFFFFFFFFFFFFFFFF AND PUSH4 0x22C0D9F PUSH1 0x0 DUP4 PUSH1 0xFF AND EQ PUSH2 0x539 JUMPI PUSH1 0x0 PUSH2 0x53B JUMP JUMPDEST DUP6 JUMPDEST PUSH1 0x1 DUP5 PUSH1 0xFF AND EQ PUSH2 0x54D JUMPI PUSH1 0x0 PUSH2 0x54F JUMP JUMPDEST DUP7 JUMPDEST CALLER PUSH1 0x0 PUSH8 0xFFFFFFFFFFFFFFFF DUP2 GT ISZERO PUSH2 0x56B JUMPI PUSH2 0x56A PUSH2 0x10F8 JUMP JUMPDEST JUMPDEST PUSH1 0x40 MLOAD SWAP1 DUP1 DUP3 MSTORE DUP1 PUSH1 0x1F ADD PUSH1 0x1F NOT AND PUSH1 0x20 ADD DUP3 ADD PUSH1 0x40 MSTORE DUP1 ISZERO PUSH2 0x59D JUMPI DUP2 PUSH1 0x20 ADD PUSH1 0x1 DUP3 MUL DUP1 CALLDATASIZE DUP4 CALLDATACOPY DUP1 DUP3 ADD SWAP2 POP POP SWAP1 POP JUMPDEST POP PUSH1 0x40 MLOAD DUP6 PUSH4 0xFFFFFFFF AND PUSH1 0xE0 SHL DUP2 MSTORE PUSH1 0x4 ADD PUSH2 0x5BD SWAP5 SWAP4 SWAP3 SWAP2 SWAP1 PUSH2 0x13EF JUMP JUMPDEST PUSH1 0x0 PUSH1 0x40 MLOAD DUP1 DUP4 SUB DUP2 PUSH1 0x0 DUP8 DUP1 EXTCODESIZE ISZERO DUP1 ISZERO PUSH2 0x5D7 JUMPI PUSH1 0x0 DUP1 REVERT JUMPDEST POP GAS CALL ISZERO DUP1 ISZERO PUSH2 0x5EB JUMPI RETURNDATASIZE PUSH1 0x0 DUP1 RETURNDATACOPY RETURNDATASIZE PUSH1 0x0 REVERT JUMPDEST POP POP POP POP POP POP POP POP PUSH2 0x9D0 JUMP JUMPDEST PUSH1 0x1 PUSH1 0xFF AND DUP2 PUSH1 0xFF AND SUB PUSH2 0x998 JUMPI PUSH1 0x0 PUSH20 0xC532A74256D3DB42D0BF7A0400FEFDBAD7694008 PUSH20 0xFFFFFFFFFFFFFFFFFFFFFFFFFFFFFFFFFFFFFFFF AND PUSH4 0xD06CA61F DUP5 DUP9 PUSH1 0x40 MLOAD DUP4 PUSH4 0xFFFFFFFF AND PUSH1 0xE0 SHL DUP2 MSTORE PUSH1 0x4 ADD PUSH2 0x657 SWAP3 SWAP2 SWAP1 PUSH2 0x109E JUMP JUMPDEST PUSH1 0x0 PUSH1 0x40 MLOAD DUP1 DUP4 SUB DUP2 DUP7 GAS STATICCALL ISZERO DUP1 ISZERO PUSH2 0x674 JUMPI RETURNDATASIZE PUSH1 0x0 DUP1 RETURNDATACOPY RETURNDATASIZE PUSH1 0x0 REVERT JUMPDEST POP POP POP POP PUSH1 0x40 MLOAD RETURNDATASIZE PUSH1 0x0 DUP3 RETURNDATACOPY RETURNDATASIZE PUSH1 0x1F NOT PUSH1 0x1F DUP3 ADD AND DUP3 ADD DUP1 PUSH1 0x40 MSTORE POP DUP2 ADD SWAP1 PUSH2 0x69D SWAP2 SWAP1 PUSH2 0x1267 JUMP JUMPDEST PUSH1 0x1 DUP2 MLOAD DUP2 LT PUSH2 0x6B0 JUMPI PUSH2 0x6AF PUSH2 0x12B0 JUMP JUMPDEST JUMPDEST PUSH1 0x20 MUL PUSH1 0x20 ADD ADD MLOAD SWAP1 POP PUSH1 0x0 PUSH20 0x7E0987E5B3A30E3F2828572BB659A548460A3003 PUSH20 0xFFFFFFFFFFFFFFFFFFFFFFFFFFFFFFFFFFFFFFFF AND PUSH4 0xE6A43905 DUP9 PUSH1 0x0 DUP2 MLOAD DUP2 LT PUSH2 0x700 JUMPI PUSH2 0x6FF PUSH2 0x12B0 JUMP JUMPDEST JUMPDEST PUSH1 0x20 MUL PUSH1 0x20 ADD ADD MLOAD DUP10 PUSH1 0x1 DUP2 MLOAD DUP2 LT PUSH2 0x71C JUMPI PUSH2 0x71B PUSH2 0x12B0 JUMP JUMPDEST JUMPDEST PUSH1 0x20 MUL PUSH1 0x20 ADD ADD MLOAD PUSH1 0x40 MLOAD DUP4 PUSH4 0xFFFFFFFF AND PUSH1 0xE0 SHL DUP2 MSTORE PUSH1 0x4 ADD PUSH2 0x741 SWAP3 SWAP2 SWAP1 PUSH2 0x12EE JUMP JUMPDEST PUSH1 0x20 PUSH1 0x40 MLOAD DUP1 DUP4 SUB DUP2 DUP7 GAS STATICCALL ISZERO DUP1 ISZERO PUSH2 0x75E JUMPI RETURNDATASIZE PUSH1 0x0 DUP1 RETURNDATACOPY RETURNDATASIZE PUSH1 0x0 REVERT JUMPDEST POP POP POP POP PUSH1 0x40 MLOAD RETURNDATASIZE PUSH1 0x1F NOT PUSH1 0x1F DUP3 ADD AND DUP3 ADD DUP1 PUSH1 0x40 MSTORE POP DUP2 ADD SWAP1 PUSH2 0x782 SWAP2 SWAP1 PUSH2 0x1343 JUMP JUMPDEST SWAP1 POP PUSH1 0x0 DUP2 PUSH20 0xFFFFFFFFFFFFFFFFFFFFFFFFFFFFFFFFFFFFFFFF AND PUSH4 0xDFE1681 PUSH1 0x40 MLOAD DUP2 PUSH4 0xFFFFFFFF AND PUSH1 0xE0 SHL DUP2 MSTORE PUSH1 0x4 ADD PUSH1 0x20 PUSH1 0x40 MLOAD DUP1 DUP4 SUB DUP2 DUP7 GAS STATICCALL ISZERO DUP1 ISZERO PUSH2 0x7D1 JUMPI RETURNDATASIZE PUSH1 0x0 DUP1 RETURNDATACOPY RETURNDATASIZE PUSH1 0x0 REVERT JUMPDEST POP POP POP POP PUSH1 0x40 MLOAD RETURNDATASIZE PUSH1 0x1F NOT PUSH1 0x1F DUP3 ADD AND DUP3 ADD DUP1 PUSH1 0x40 MSTORE POP DUP2 ADD SWAP1 PUSH2 0x7F5 SWAP2 SWAP1 PUSH2 0x1343 JUMP JUMPDEST SWAP1 POP PUSH1 0x0 PUSH20 0x7B79995E5F793A07BC00C21412E50ECAE098E7F9 PUSH20 0xFFFFFFFFFFFFFFFFFFFFFFFFFFFFFFFFFFFFFFFF AND DUP3 PUSH20 0xFFFFFFFFFFFFFFFFFFFFFFFFFFFFFFFFFFFFFFFF AND EQ PUSH2 0x847 JUMPI PUSH1 0x1 PUSH2 0x84A JUMP JUMPDEST PUSH1 0x0 JUMPDEST SWAP1 POP PUSH32 0x23B872DD00000000000000000000000000000000000000000000000000000000 PUSH1 0x7C MSTORE CALLER PUSH1 0x80 MSTORE DUP3 PUSH1 0xA0 MSTORE DUP6 PUSH1 0xC0 MSTORE PUSH1 0x0 DUP1 PUSH1 0x64 PUSH1 0x7C PUSH1 0x0 PUSH20 0x7B79995E5F793A07BC00C21412E50ECAE098E7F9 PUSH2 0x1388 GAS SUB CALL DUP1 PUSH2 0x8AA JUMPI PUSH1 0x3 DUP1 REVERT JUMPDEST POP DUP3 PUSH20 0xFFFFFFFFFFFFFFFFFFFFFFFFFFFFFFFFFFFFFFFF AND PUSH4 0x22C0D9F PUSH1 0x0 DUP4 PUSH1 0xFF AND EQ PUSH2 0x8D9 JUMPI PUSH1 0x0 PUSH2 0x8DB JUMP JUMPDEST DUP6 JUMPDEST PUSH1 0x1 DUP5 PUSH1 0xFF AND EQ PUSH2 0x8ED JUMPI PUSH1 0x0 PUSH2 0x8EF JUMP JUMPDEST DUP7 JUMPDEST CALLER PUSH1 0x0 PUSH8 0xFFFFFFFFFFFFFFFF DUP2 GT ISZERO PUSH2 0x90B JUMPI PUSH2 0x90A PUSH2 0x10F8 JUMP JUMPDEST JUMPDEST PUSH1 0x40 MLOAD SWAP1 DUP1 DUP3 MSTORE DUP1 PUSH1 0x1F ADD PUSH1 0x1F NOT AND PUSH1 0x20 ADD DUP3 ADD PUSH1 0x40 MSTORE DUP1 ISZERO PUSH2 0x93D JUMPI DUP2 PUSH1 0x20 ADD PUSH1 0x1 DUP3 MUL DUP1 CALLDATASIZE DUP4 CALLDATACOPY DUP1 DUP3 ADD SWAP2 POP POP SWAP1 POP JUMPDEST POP PUSH1 0x40 MLOAD DUP6 PUSH4 0xFFFFFFFF AND PUSH1 0xE0 SHL DUP2 MSTORE PUSH1 0x4 ADD PUSH2 0x95D SWAP5 SWAP4 SWAP3 SWAP2 SWAP1 PUSH2 0x13EF JUMP JUMPDEST PUSH1 0x0 PUSH1 0x40 MLOAD DUP1 DUP4 SUB DUP2 PUSH1 0x0 DUP8 DUP1 EXTCODESIZE ISZERO DUP1 ISZERO PUSH2 0x977 JUMPI PUSH1 0x0 DUP1 REVERT JUMPDEST POP GAS CALL ISZERO DUP1 ISZERO PUSH2 0x98B JUMPI RETURNDATASIZE PUSH1 0x0 DUP1 RETURNDATACOPY RETURNDATASIZE PUSH1 0x0 REVERT JUMPDEST POP POP POP POP POP POP POP POP PUSH2 0x9CF JUMP JUMPDEST PUSH1 0x2 PUSH1 0xFF AND DUP2 PUSH1 0xFF AND SUB PUSH2 0x9CE JUMPI DUP2 DUP8 PUSH2 0x9B2 SWAP2 SWAP1 PUSH2 0xF6B JUMP JUMPDEST SWAP7 POP PUSH1 0x0 DUP1 PUSH1 0x0 DUP1 DUP6 DUP8 PUSH2 0x1388 GAS SUB CALL DUP1 PUSH2 0x9CC JUMPI PUSH1 0x3 DUP1 REVERT JUMPDEST POP JUMPDEST JUMPDEST JUMPDEST POP POP POP DUP1 DUP1 PUSH1 0x1 ADD SWAP2 POP POP PUSH2 0x147 JUMP JUMPDEST POP DUP2 PUSH1 0xFF AND PUSH1 0x0 SLOAD PUSH2 0x9F2 SWAP2 SWAP1 PUSH2 0x143B JUMP JUMPDEST DUP4 LT ISZERO PUSH2 0xA34 JUMPI PUSH1 0x40 MLOAD PUSH32 0x8C379A000000000000000000000000000000000000000000000000000000000 DUP2 MSTORE PUSH1 0x4 ADD PUSH2 0xA2B SWAP1 PUSH2 0x14C9 JUMP JUMPDEST PUSH1 0x40 MLOAD DUP1 SWAP2 SUB SWAP1 REVERT JUMPDEST STOP JUMPDEST CALLVALUE DUP1 ISZERO PUSH2 0xA42 JUMPI PUSH1 0x0 DUP1 REVERT JUMPDEST POP PUSH2 0xA5D PUSH1 0x4 DUP1 CALLDATASIZE SUB DUP2 ADD SWAP1 PUSH2 0xA58 SWAP2 SWAP1 PUSH2 0x1521 JUMP JUMPDEST PUSH2 0xB98 JUMP JUMPDEST STOP JUMPDEST CALLVALUE DUP1 ISZERO PUSH2 0xA6B JUMPI PUSH1 0x0 DUP1 REVERT JUMPDEST POP PUSH2 0xA86 PUSH1 0x4 DUP1 CALLDATASIZE SUB DUP2 ADD SWAP1 PUSH2 0xA81 SWAP2 SWAP1 PUSH2 0x1563 JUMP JUMPDEST PUSH2 0xC0F JUMP JUMPDEST STOP JUMPDEST CALLVALUE DUP1 ISZERO PUSH2 0xA94 JUMPI PUSH1 0x0 DUP1 REVERT JUMPDEST POP PUSH2 0xAAF PUSH1 0x4 DUP1 CALLDATASIZE SUB DUP2 ADD SWAP1 PUSH2 0xAAA SWAP2 SWAP1 PUSH2 0x15A5 JUMP JUMPDEST PUSH2 0xD2B JUMP JUMPDEST STOP JUMPDEST CALLVALUE DUP1 ISZERO PUSH2 0xABD JUMPI PUSH1 0x0 DUP1 REVERT JUMPDEST POP PUSH2 0xAC6 PUSH2 0xD8F JUMP JUMPDEST PUSH1 0x40 MLOAD PUSH2 0xAD3 SWAP2 SWAP1 PUSH2 0x15D2 JUMP JUMPDEST PUSH1 0x40 MLOAD DUP1 SWAP2 SUB SWAP1 RETURN JUMPDEST CALLVALUE DUP1 ISZERO PUSH2 0xAE8 JUMPI PUSH1 0x0 DUP1 REVERT JUMPDEST POP PUSH2 0xAF1 PUSH2 0xDB5 JUMP JUMPDEST PUSH1 0x40 MLOAD PUSH2 0xAFE SWAP2 SWAP1 PUSH2 0x15FC JUMP JUMPDEST PUSH1 0x40 MLOAD DUP1 SWAP2 SUB SWAP1 RETURN JUMPDEST CALLVALUE DUP1 ISZERO PUSH2 0xB13 JUMPI PUSH1 0x0 DUP1 REVERT JUMPDEST POP PUSH2 0xB2E PUSH1 0x4 DUP1 CALLDATASIZE SUB DUP2 ADD SWAP1 PUSH2 0xB29 SWAP2 SWAP1 PUSH2 0x1617 JUMP JUMPDEST PUSH2 0xDC8 JUMP JUMPDEST PUSH1 0x40 MLOAD PUSH2 0xB3B SWAP2 SWAP1 PUSH2 0x1657 JUMP JUMPDEST PUSH1 0x40 MLOAD DUP1 SWAP2 SUB SWAP1 RETURN JUMPDEST CALLVALUE DUP1 ISZERO PUSH2 0xB50 JUMPI PUSH1 0x0 DUP1 REVERT JUMPDEST POP PUSH2 0xB59 PUSH2 0xE11 JUMP JUMPDEST PUSH1 0x40 MLOAD PUSH2 0xB66 SWAP2 SWAP1 PUSH2 0x1657 JUMP JUMPDEST PUSH1 0x40 MLOAD DUP1 SWAP2 SUB SWAP1 RETURN JUMPDEST CALLVALUE DUP1 ISZERO PUSH2 0xB7B JUMPI PUSH1 0x0 DUP1 REVERT JUMPDEST POP PUSH2 0xB96 PUSH1 0x4 DUP1 CALLDATASIZE SUB DUP2 ADD SWAP1 PUSH2 0xB91 SWAP2 SWAP1 PUSH2 0x1563 JUMP JUMPDEST PUSH2 0xE17 JUMP JUMPDEST STOP JUMPDEST PUSH1 0x1 PUSH1 0x0 SWAP1 SLOAD SWAP1 PUSH2 0x100 EXP SWAP1 DIV PUSH20 0xFFFFFFFFFFFFFFFFFFFFFFFFFFFFFFFFFFFFFFFF AND PUSH20 0xFFFFFFFFFFFFFFFFFFFFFFFFFFFFFFFFFFFFFFFF AND CALLER PUSH20 0xFFFFFFFFFFFFFFFFFFFFFFFFFFFFFFFFFFFFFFFF AND EQ PUSH2 0xBF2 JUMPI PUSH1 0x0 DUP1 REVERT JUMPDEST DUP1 PUSH1 0x1 PUSH1 0x14 PUSH2 0x100 EXP DUP2 SLOAD DUP2 PUSH1 0xFF MUL NOT AND SWAP1 DUP4 ISZERO ISZERO MUL OR SWAP1 SSTORE POP POP JUMP JUMPDEST PUSH1 0x1 PUSH1 0x0 SWAP1 SLOAD SWAP1 PUSH2 0x100 EXP SWAP1 DIV PUSH20 0xFFFFFFFFFFFFFFFFFFFFFFFFFFFFFFFFFFFFFFFF AND PUSH20 0xFFFFFFFFFFFFFFFFFFFFFFFFFFFFFFFFFFFFFFFF AND CALLER PUSH20 0xFFFFFFFFFFFFFFFFFFFFFFFFFFFFFFFFFFFFFFFF AND EQ PUSH2 0xC69 JUMPI PUSH1 0x0 DUP1 REVERT JUMPDEST PUSH32 0x70A0823100000000000000000000000000000000000000000000000000000000 PUSH1 0x7C MSTORE ADDRESS PUSH1 0x80 MSTORE PUSH1 0x20 PUSH1 0x0 PUSH1 0x24 PUSH1 0x7C DUP5 PUSH2 0x1388 GAS SUB STATICCALL DUP1 PUSH2 0xCAA JUMPI PUSH1 0x3 DUP1 REVERT JUMPDEST PUSH1 0x0 DUP1 MLOAD SUB PUSH2 0xCB8 JUMPI PUSH1 0x3 DUP1 REVERT JUMPDEST PUSH1 0x0 MLOAD PUSH32 0xA9059CBB00000000000000000000000000000000000000000000000000000000 PUSH1 0x7C MSTORE CALLER PUSH1 0x80 MSTORE DUP1 PUSH1 0xA0 MSTORE PUSH1 0x0 DUP1 PUSH1 0x44 PUSH1 0x7C PUSH1 0x0 DUP8 PUSH2 0x1388 GAS SUB CALL SWAP2 POP DUP2 PUSH2 0xD03 JUMPI PUSH1 0x3 DUP1 REVERT JUMPDEST PUSH1 0x0 SELFBALANCE EQ PUSH2 0xD26 JUMPI PUSH1 0x0 DUP1 PUSH1 0x0 DUP1 SELFBALANCE CALLER PUSH2 0x1388 GAS SUB CALL SWAP2 POP DUP2 PUSH2 0xD25 JUMPI PUSH1 0x3 DUP1 REVERT JUMPDEST JUMPDEST POP POP POP JUMP JUMPDEST PUSH1 0x1 PUSH1 0x0 SWAP1 SLOAD SWAP1 PUSH2 0x100 EXP SWAP1 DIV PUSH20 0xFFFFFFFFFFFFFFFFFFFFFFFFFFFFFFFFFFFFFFFF AND PUSH20 0xFFFFFFFFFFFFFFFFFFFFFFFFFFFFFFFFFFFFFFFF AND CALLER PUSH20 0xFFFFFFFFFFFFFFFFFFFFFFFFFFFFFFFFFFFFFFFF AND EQ PUSH2 0xD85 JUMPI PUSH1 0x0 DUP1 REVERT JUMPDEST DUP1 PUSH1 0x0 DUP2 SWAP1 SSTORE POP POP JUMP JUMPDEST PUSH1 0x1 PUSH1 0x0 SWAP1 SLOAD SWAP1 PUSH2 0x100 EXP SWAP1 DIV PUSH20 0xFFFFFFFFFFFFFFFFFFFFFFFFFFFFFFFFFFFFFFFF AND DUP2 JUMP JUMPDEST PUSH1 0x1 PUSH1 0x14 SWAP1 SLOAD SWAP1 PUSH2 0x100 EXP SWAP1 DIV PUSH1 0xFF AND DUP2 JUMP JUMPDEST PUSH1 0x0 PUSH32 0x70A0823100000000000000000000000000000000000000000000000000000000 PUSH1 0x7C MSTORE DUP3 PUSH1 0x80 MSTORE PUSH1 0x20 PUSH1 0x0 PUSH1 0x24 PUSH1 0x7C DUP6 PUSH2 0x1388 GAS SUB STATICCALL DUP1 PUSH2 0xE0B JUMPI PUSH1 0x3 DUP1 REVERT JUMPDEST PUSH1 0x20 PUSH1 0x0 RETURN JUMPDEST PUSH1 0x0 SLOAD DUP2 JUMP JUMPDEST PUSH1 0x1 PUSH1 0x0 SWAP1 SLOAD SWAP1 PUSH2 0x100 EXP SWAP1 DIV PUSH20 0xFFFFFFFFFFFFFFFFFFFFFFFFFFFFFFFFFFFFFFFF AND PUSH20 0xFFFFFFFFFFFFFFFFFFFFFFFFFFFFFFFFFFFFFFFF AND CALLER PUSH20 0xFFFFFFFFFFFFFFFFFFFFFFFFFFFFFFFFFFFFFFFF AND EQ PUSH2 0xE71 JUMPI PUSH1 0x0 DUP1 REVERT JUMPDEST DUP1 PUSH1 0x1 PUSH1 0x0 PUSH2 0x100 EXP DUP2 SLOAD DUP2 PUSH20 0xFFFFFFFFFFFFFFFFFFFFFFFFFFFFFFFFFFFFFFFF MUL NOT AND SWAP1 DUP4 PUSH20 0xFFFFFFFFFFFFFFFFFFFFFFFFFFFFFFFFFFFFFFFF AND MUL OR SWAP1 SSTORE POP POP JUMP JUMPDEST PUSH1 0x0 DUP3 DUP3 MSTORE PUSH1 0x20 DUP3 ADD SWAP1 POP SWAP3 SWAP2 POP POP JUMP JUMPDEST PUSH32 0x4D61696E74656E616E6365000000000000000000000000000000000000000000 PUSH1 0x0 DUP3 ADD MSTORE POP JUMP JUMPDEST PUSH1 0x0 PUSH2 0xEFC PUSH1 0xB DUP4 PUSH2 0xEB5 JUMP JUMPDEST SWAP2 POP PUSH2 0xF07 DUP3 PUSH2 0xEC6 JUMP JUMPDEST PUSH1 0x20 DUP3 ADD SWAP1 POP SWAP2 SWAP1 POP JUMP JUMPDEST PUSH1 0x0 PUSH1 0x20 DUP3 ADD SWAP1 POP DUP2 DUP2 SUB PUSH1 0x0 DUP4 ADD MSTORE PUSH2 0xF2B DUP2 PUSH2 0xEEF JUMP JUMPDEST SWAP1 POP SWAP2 SWAP1 POP JUMP JUMPDEST PUSH1 0x0 DUP2 SWAP1 POP SWAP2 SWAP1 POP JUMP JUMPDEST PUSH32 0x4E487B7100000000000000000000000000000000000000000000000000000000 PUSH1 0x0 MSTORE PUSH1 0x11 PUSH1 0x4 MSTORE PUSH1 0x24 PUSH1 0x0 REVERT JUMPDEST PUSH1 0x0 PUSH2 0xF76 DUP3 PUSH2 0xF32 JUMP JUMPDEST SWAP2 POP PUSH2 0xF81 DUP4 PUSH2 0xF32 JUMP JUMPDEST SWAP3 POP DUP3 DUP3 SUB SWAP1 POP DUP2 DUP2 GT ISZERO PUSH2 0xF99 JUMPI PUSH2 0xF98 PUSH2 0xF3C JUMP JUMPDEST JUMPDEST SWAP3 SWAP2 POP POP JUMP JUMPDEST PUSH2 0xFA8 DUP2 PUSH2 0xF32 JUMP JUMPDEST DUP3 MSTORE POP POP JUMP JUMPDEST PUSH1 0x0 DUP2 MLOAD SWAP1 POP SWAP2 SWAP1 POP JUMP JUMPDEST PUSH1 0x0 DUP3 DUP3 MSTORE PUSH1 0x20 DUP3 ADD SWAP1 POP SWAP3 SWAP2 POP POP JUMP JUMPDEST PUSH1 0x0 DUP2 SWAP1 POP PUSH1 0x20 DUP3 ADD SWAP1 POP SWAP2 SWAP1 POP JUMP JUMPDEST PUSH1 0x0 PUSH20 0xFFFFFFFFFFFFFFFFFFFFFFFFFFFFFFFFFFFFFFFF DUP3 AND SWAP1 POP SWAP2 SWAP1 POP JUMP JUMPDEST PUSH1 0x0 PUSH2 0x1005 DUP3 PUSH2 0xFDA JUMP JUMPDEST SWAP1 POP SWAP2 SWAP1 POP JUMP JUMPDEST PUSH2 0x1015 DUP2 PUSH2 0xFFA JUMP JUMPDEST DUP3 MSTORE POP POP JUMP JUMPDEST PUSH1 0x0 PUSH2 0x1027 DUP4 DUP4 PUSH2 0x100C JUMP JUMPDEST PUSH1 0x20 DUP4 ADD SWAP1 POP SWAP3 SWAP2 POP POP JUMP JUMPDEST PUSH1 0x0 PUSH1 0x20 DUP3 ADD SWAP1 POP SWAP2 SWAP1 POP JUMP JUMPDEST PUSH1 0x0 PUSH2 0x104B DUP3 PUSH2 0xFAE JUMP JUMPDEST PUSH2 0x1055 DUP2 DUP6 PUSH2 0xFB9 JUMP JUMPDEST SWAP4 POP PUSH2 0x1060 DUP4 PUSH2 0xFCA JUMP JUMPDEST DUP1 PUSH1 0x0 JUMPDEST DUP4 DUP2 LT ISZERO PUSH2 0x1091 JUMPI DUP2 MLOAD PUSH2 0x1078 DUP9 DUP3 PUSH2 0x101B JUMP JUMPDEST SWAP8 POP PUSH2 0x1083 DUP4 PUSH2 0x1033 JUMP JUMPDEST SWAP3 POP POP PUSH1 0x1 DUP2 ADD SWAP1 POP PUSH2 0x1064 JUMP JUMPDEST POP DUP6 SWAP4 POP POP POP POP SWAP3 SWAP2 POP POP JUMP JUMPDEST PUSH1 0x0 PUSH1 0x40 DUP3 ADD SWAP1 POP PUSH2 0x10B3 PUSH1 0x0 DUP4 ADD DUP6 PUSH2 0xF9F JUMP JUMPDEST DUP2 DUP2 SUB PUSH1 0x20 DUP4 ADD MSTORE PUSH2 0x10C5 DUP2 DUP5 PUSH2 0x1040 JUMP JUMPDEST SWAP1 POP SWAP4 SWAP3 POP POP POP JUMP JUMPDEST PUSH1 0x0 PUSH1 0x40 MLOAD SWAP1 POP SWAP1 JUMP JUMPDEST PUSH1 0x0 DUP1 REVERT JUMPDEST PUSH1 0x0 DUP1 REVERT JUMPDEST PUSH1 0x0 DUP1 REVERT JUMPDEST PUSH1 0x0 PUSH1 0x1F NOT PUSH1 0x1F DUP4 ADD AND SWAP1 POP SWAP2 SWAP1 POP JUMP JUMPDEST PUSH32 0x4E487B7100000000000000000000000000000000000000000000000000000000 PUSH1 0x0 MSTORE PUSH1 0x41 PUSH1 0x4 MSTORE PUSH1 0x24 PUSH1 0x0 REVERT JUMPDEST PUSH2 0x1130 DUP3 PUSH2 0x10E7 JUMP JUMPDEST DUP2 ADD DUP2 DUP2 LT PUSH8 0xFFFFFFFFFFFFFFFF DUP3 GT OR ISZERO PUSH2 0x114F JUMPI PUSH2 0x114E PUSH2 0x10F8 JUMP JUMPDEST JUMPDEST DUP1 PUSH1 0x40 MSTORE POP POP POP JUMP JUMPDEST PUSH1 0x0 PUSH2 0x1162 PUSH2 0x10CE JUMP JUMPDEST SWAP1 POP PUSH2 0x116E DUP3 DUP3 PUSH2 0x1127 JUMP JUMPDEST SWAP2 SWAP1 POP JUMP JUMPDEST PUSH1 0x0 PUSH8 0xFFFFFFFFFFFFFFFF DUP3 GT ISZERO PUSH2 0x118E JUMPI PUSH2 0x118D PUSH2 0x10F8 JUMP JUMPDEST JUMPDEST PUSH1 0x20 DUP3 MUL SWAP1 POP PUSH1 0x20 DUP2 ADD SWAP1 POP SWAP2 SWAP1 POP JUMP JUMPDEST PUSH1 0x0 DUP1 REVERT JUMPDEST PUSH2 0x11AD DUP2 PUSH2 0xF32 JUMP JUMPDEST DUP2 EQ PUSH2 0x11B8 JUMPI PUSH1 0x0 DUP1 REVERT JUMPDEST POP JUMP JUMPDEST PUSH1 0x0 DUP2 MLOAD SWAP1 POP PUSH2 0x11CA DUP2 PUSH2 0x11A4 JUMP JUMPDEST SWAP3 SWAP2 POP POP JUMP JUMPDEST PUSH1 0x0 PUSH2 0x11E3 PUSH2 0x11DE DUP5 PUSH2 0x1173 JUMP JUMPDEST PUSH2 0x1158 JUMP JUMPDEST SWAP1 POP DUP1 DUP4 DUP3 MSTORE PUSH1 0x20 DUP3 ADD SWAP1 POP PUSH1 0x20 DUP5 MUL DUP4 ADD DUP6 DUP2 GT ISZERO PUSH2 0x1206 JUMPI PUSH2 0x1205 PUSH2 0x119F JUMP JUMPDEST JUMPDEST DUP4 JUMPDEST DUP2 DUP2 LT ISZERO PUSH2 0x122F JUMPI DUP1 PUSH2 0x121B DUP9 DUP3 PUSH2 0x11BB JUMP JUMPDEST DUP5 MSTORE PUSH1 0x20 DUP5 ADD SWAP4 POP POP PUSH1 0x20 DUP2 ADD SWAP1 POP PUSH2 0x1208 JUMP JUMPDEST POP POP POP SWAP4 SWAP3 POP POP POP JUMP JUMPDEST PUSH1 0x0 DUP3 PUSH1 0x1F DUP4 ADD SLT PUSH2 0x124E JUMPI PUSH2 0x124D PUSH2 0x10E2 JUMP JUMPDEST JUMPDEST DUP2 MLOAD PUSH2 0x125E DUP5 DUP3 PUSH1 0x20 DUP7 ADD PUSH2 0x11D0 JUMP JUMPDEST SWAP2 POP POP SWAP3 SWAP2 POP POP JUMP JUMPDEST PUSH1 0x0 PUSH1 0x20 DUP3 DUP5 SUB SLT ISZERO PUSH2 0x127D JUMPI PUSH2 0x127C PUSH2 0x10D8 JUMP JUMPDEST JUMPDEST PUSH1 0x0 DUP3 ADD MLOAD PUSH8 0xFFFFFFFFFFFFFFFF DUP2 GT ISZERO PUSH2 0x129B JUMPI PUSH2 0x129A PUSH2 0x10DD JUMP JUMPDEST JUMPDEST PUSH2 0x12A7 DUP5 DUP3 DUP6 ADD PUSH2 0x1239 JUMP JUMPDEST SWAP2 POP POP SWAP3 SWAP2 POP POP JUMP JUMPDEST PUSH32 0x4E487B7100000000000000000000000000000000000000000000000000000000 PUSH1 0x0 MSTORE PUSH1 0x32 PUSH1 0x4 MSTORE PUSH1 0x24 PUSH1 0x0 REVERT JUMPDEST PUSH2 0x12E8 DUP2 PUSH2 0xFFA JUMP JUMPDEST DUP3 MSTORE POP POP JUMP JUMPDEST PUSH1 0x0 PUSH1 0x40 DUP3 ADD SWAP1 POP PUSH2 0x1303 PUSH1 0x0 DUP4 ADD DUP6 PUSH2 0x12DF JUMP JUMPDEST PUSH2 0x1310 PUSH1 0x20 DUP4 ADD DUP5 PUSH2 0x12DF JUMP JUMPDEST SWAP4 SWAP3 POP POP POP JUMP JUMPDEST PUSH2 0x1320 DUP2 PUSH2 0xFFA JUMP JUMPDEST DUP2 EQ PUSH2 0x132B JUMPI PUSH1 0x0 DUP1 REVERT JUMPDEST POP JUMP JUMPDEST PUSH1 0x0 DUP2 MLOAD SWAP1 POP PUSH2 0x133D DUP2 PUSH2 0x1317 JUMP JUMPDEST SWAP3 SWAP2 POP POP JUMP JUMPDEST PUSH1 0x0 PUSH1 0x20 DUP3 DUP5 SUB SLT ISZERO PUSH2 0x1359 JUMPI PUSH2 0x1358 PUSH2 0x10D8 JUMP JUMPDEST JUMPDEST PUSH1 0x0 PUSH2 0x1367 DUP5 DUP3 DUP6 ADD PUSH2 0x132E JUMP JUMPDEST SWAP2 POP POP SWAP3 SWAP2 POP POP JUMP JUMPDEST PUSH1 0x0 DUP2 MLOAD SWAP1 POP SWAP2 SWAP1 POP JUMP JUMPDEST PUSH1 0x0 DUP3 DUP3 MSTORE PUSH1 0x20 DUP3 ADD SWAP1 POP SWAP3 SWAP2 POP POP JUMP JUMPDEST PUSH1 0x0 JUMPDEST DUP4 DUP2 LT ISZERO PUSH2 0x13AA JUMPI DUP1 DUP3 ADD MLOAD DUP2 DUP5 ADD MSTORE PUSH1 0x20 DUP2 ADD SWAP1 POP PUSH2 0x138F JUMP JUMPDEST PUSH1 0x0 DUP5 DUP5 ADD MSTORE POP POP POP POP JUMP JUMPDEST PUSH1 0x0 PUSH2 0x13C1 DUP3 PUSH2 0x1370 JUMP JUMPDEST PUSH2 0x13CB DUP2 DUP6 PUSH2 0x137B JUMP JUMPDEST SWAP4 POP PUSH2 0x13DB DUP2 DUP6 PUSH1 0x20 DUP7 ADD PUSH2 0x138C JUMP JUMPDEST PUSH2 0x13E4 DUP2 PUSH2 0x10E7 JUMP JUMPDEST DUP5 ADD SWAP2 POP POP SWAP3 SWAP2 POP POP JUMP JUMPDEST PUSH1 0x0 PUSH1 0x80 DUP3 ADD SWAP1 POP PUSH2 0x1404 PUSH1 0x0 DUP4 ADD DUP8 PUSH2 0xF9F JUMP JUMPDEST PUSH2 0x1411 PUSH1 0x20 DUP4 ADD DUP7 PUSH2 0xF9F JUMP JUMPDEST PUSH2 0x141E PUSH1 0x40 DUP4 ADD DUP6 PUSH2 0x12DF JUMP JUMPDEST DUP2 DUP2 SUB PUSH1 0x60 DUP4 ADD MSTORE PUSH2 0x1430 DUP2 DUP5 PUSH2 0x13B6 JUMP JUMPDEST SWAP1 POP SWAP6 SWAP5 POP POP POP POP POP JUMP JUMPDEST PUSH1 0x0 PUSH2 0x1446 DUP3 PUSH2 0xF32 JUMP JUMPDEST SWAP2 POP PUSH2 0x1451 DUP4 PUSH2 0xF32 JUMP JUMPDEST SWAP3 POP DUP3 DUP3 MUL PUSH2 0x145F DUP2 PUSH2 0xF32 JUMP JUMPDEST SWAP2 POP DUP3 DUP3 DIV DUP5 EQ DUP4 ISZERO OR PUSH2 0x1476 JUMPI PUSH2 0x1475 PUSH2 0xF3C JUMP JUMPDEST JUMPDEST POP SWAP3 SWAP2 POP POP JUMP JUMPDEST PUSH32 0x466565206E6F7420706169640000000000000000000000000000000000000000 PUSH1 0x0 DUP3 ADD MSTORE POP JUMP JUMPDEST PUSH1 0x0 PUSH2 0x14B3 PUSH1 0xC DUP4 PUSH2 0xEB5 JUMP JUMPDEST SWAP2 POP PUSH2 0x14BE DUP3 PUSH2 0x147D JUMP JUMPDEST PUSH1 0x20 DUP3 ADD SWAP1 POP SWAP2 SWAP1 POP JUMP JUMPDEST PUSH1 0x0 PUSH1 0x20 DUP3 ADD SWAP1 POP DUP2 DUP2 SUB PUSH1 0x0 DUP4 ADD MSTORE PUSH2 0x14E2 DUP2 PUSH2 0x14A6 JUMP JUMPDEST SWAP1 POP SWAP2 SWAP1 POP JUMP JUMPDEST PUSH1 0x0 DUP2 ISZERO ISZERO SWAP1 POP SWAP2 SWAP1 POP JUMP JUMPDEST PUSH2 0x14FE DUP2 PUSH2 0x14E9 JUMP JUMPDEST DUP2 EQ PUSH2 0x1509 JUMPI PUSH1 0x0 DUP1 REVERT JUMPDEST POP JUMP JUMPDEST PUSH1 0x0 DUP2 CALLDATALOAD SWAP1 POP PUSH2 0x151B DUP2 PUSH2 0x14F5 JUMP JUMPDEST SWAP3 SWAP2 POP POP JUMP JUMPDEST PUSH1 0x0 PUSH1 0x20 DUP3 DUP5 SUB SLT ISZERO PUSH2 0x1537 JUMPI PUSH2 0x1536 PUSH2 0x10D8 JUMP JUMPDEST JUMPDEST PUSH1 0x0 PUSH2 0x1545 DUP5 DUP3 DUP6 ADD PUSH2 0x150C JUMP JUMPDEST SWAP2 POP POP SWAP3 SWAP2 POP POP JUMP JUMPDEST PUSH1 0x0 DUP2 CALLDATALOAD SWAP1 POP PUSH2 0x155D DUP2 PUSH2 0x1317 JUMP JUMPDEST SWAP3 SWAP2 POP POP JUMP JUMPDEST PUSH1 0x0 PUSH1 0x20 DUP3 DUP5 SUB SLT ISZERO PUSH2 0x1579 JUMPI PUSH2 0x1578 PUSH2 0x10D8 JUMP JUMPDEST JUMPDEST PUSH1 0x0 PUSH2 0x1587 DUP5 DUP3 DUP6 ADD PUSH2 0x154E JUMP JUMPDEST SWAP2 POP POP SWAP3 SWAP2 POP POP JUMP JUMPDEST PUSH1 0x0 DUP2 CALLDATALOAD SWAP1 POP PUSH2 0x159F DUP2 PUSH2 0x11A4 JUMP JUMPDEST SWAP3 SWAP2 POP POP JUMP JUMPDEST PUSH1 0x0 PUSH1 0x20 DUP3 DUP5 SUB SLT ISZERO PUSH2 0x15BB JUMPI PUSH2 0x15BA PUSH2 0x10D8 JUMP JUMPDEST JUMPDEST PUSH1 0x0 PUSH2 0x15C9 DUP5 DUP3 DUP6 ADD PUSH2 0x1590 JUMP JUMPDEST SWAP2 POP POP SWAP3 SWAP2 POP POP JUMP JUMPDEST PUSH1 0x0 PUSH1 0x20 DUP3 ADD SWAP1 POP PUSH2 0x15E7 PUSH1 0x0 DUP4 ADD DUP5 PUSH2 0x12DF JUMP JUMPDEST SWAP3 SWAP2 POP POP JUMP JUMPDEST PUSH2 0x15F6 DUP2 PUSH2 0x14E9 JUMP JUMPDEST DUP3 MSTORE POP POP JUMP JUMPDEST PUSH1 0x0 PUSH1 0x20 DUP3 ADD SWAP1 POP PUSH2 0x1611 PUSH1 0x0 DUP4 ADD DUP5 PUSH2 0x15ED JUMP JUMPDEST SWAP3 SWAP2 POP POP JUMP JUMPDEST PUSH1 0x0 DUP1 PUSH1 0x40 DUP4 DUP6 SUB SLT ISZERO PUSH2 0x162E JUMPI PUSH2 0x162D PUSH2 0x10D8 JUMP JUMPDEST JUMPDEST PUSH1 0x0 PUSH2 0x163C DUP6 DUP3 DUP7 ADD PUSH2 0x154E JUMP JUMPDEST SWAP3 POP POP PUSH1 0x20 PUSH2 0x164D DUP6 DUP3 DUP7 ADD PUSH2 0x154E JUMP JUMPDEST SWAP2 POP POP SWAP3 POP SWAP3 SWAP1 POP JUMP JUMPDEST PUSH1 0x0 PUSH1 0x20 DUP3 ADD SWAP1 POP PUSH2 0x166C PUSH1 0x0 DUP4 ADD DUP5 PUSH2 0xF9F JUMP JUMPDEST SWAP3 SWAP2 POP POP JUMP INVALID LOG2 PUSH5 0x6970667358 0x22 SLT KECCAK256 DUP7 0xB0 0xC0 0x2C 0xCE SWAP13 PUSH31 0x4C2C9B26CFCB8931E2AD0D17E92782FCDEF017B8A4E29D46D964736F6C6343 STOP ADDMOD SHR STOP CALLER "},"methodIdentifiers":{"changeContractStatus(bool)":"4b6c36b5","changeFee(uint256)":"6a1db1bf","contractStatus()":"c6ee20d2","fee()":"ddca3f43","getBalance(address,address)":"d4fac45d","owner()":"8da5cb5b","transferOwnership(address)":"f2fde38b","withdraw(address)":"51cff8d9"}}}}}