{
  "_format": "hh-sol-artifact-1",
  "contractName": "SIO",
  "sourceName": "contracts/SIO.sol",
  "abi": [
    {
      "inputs": [],
      "stateMutability": "nonpayable",
      "type": "constructor"
    },
    {
      "stateMutability": "payable",
      "type": "fallback"
    },
    {
      "inputs": [
        {
          "internalType": "bool",
          "name": "status",
          "type": "bool"
        }
      ],
      "name": "changeContractStatus",
      "outputs": [],
      "stateMutability": "nonpayable",
      "type": "function"
    },
    {
      "inputs": [
        {
          "internalType": "uint256",
          "name": "newFee",
          "type": "uint256"
        }
      ],
      "name": "changeFee",
      "outputs": [],
      "stateMutability": "nonpayable",
      "type": "function"
    },
    {
      "inputs": [],
      "name": "contractStatus",
      "outputs": [
        {
          "internalType": "bool",
          "name": "",
          "type": "bool"
        }
      ],
      "stateMutability": "view",
      "type": "function"
    },
    {
      "inputs": [],
      "name": "fee",
      "outputs": [
        {
          "internalType": "uint256",
          "name": "",
          "type": "uint256"
        }
      ],
      "stateMutability": "view",
      "type": "function"
    },
    {
      "inputs": [
        {
          "internalType": "address",
          "name": "account",
          "type": "address"
        },
        {
          "internalType": "address",
          "name": "token",
          "type": "address"
        }
      ],
      "name": "getBalance",
      "outputs": [
        {
          "internalType": "uint256",
          "name": "",
          "type": "uint256"
        }
      ],
      "stateMutability": "view",
      "type": "function"
    },
    {
      "inputs": [],
      "name": "owner",
      "outputs": [
        {
          "internalType": "address",
          "name": "",
          "type": "address"
        }
      ],
      "stateMutability": "view",
      "type": "function"
    },
    {
      "inputs": [
        {
          "internalType": "address",
          "name": "newOwner",
          "type": "address"
        }
      ],
      "name": "transferOwnership",
      "outputs": [],
      "stateMutability": "nonpayable",
      "type": "function"
    },
    {
      "inputs": [
        {
          "internalType": "address",
          "name": "token",
          "type": "address"
        }
      ],
      "name": "withdraw",
      "outputs": [],
      "stateMutability": "nonpayable",
      "type": "function"
    },
    {
      "stateMutability": "payable",
      "type": "receive"
    }
  ],
  "bytecode": "0x6080604052348015600f57600080fd5b5033600160006101000a81548173ffffffffffffffffffffffffffffffffffffffff021916908373ffffffffffffffffffffffffffffffffffffffff16021790555060018060146101000a81548160ff02191690831515021790555066038d7ea4c680006000819055506116a8806100886000396000f3fe60806040526004361061007f5760003560e01c8063c6ee20d21161004e578063c6ee20d214610adc578063d4fac45d14610b07578063ddca3f4314610b44578063f2fde38b14610b6f576100e5565b80634b6c36b514610a3657806351cff8d914610a5f5780636a1db1bf14610a885780638da5cb5b14610ab1576100e5565b366100e5576000340361009157600380fd5b6040517fd0e30db000000000000000000000000000000000000000000000000000000000815260008060048334737b79995e5f793a07bc00c21412e50ecae098e7f96113885a03f1806100e357600380fd5b005b600160149054906101000a900460ff16610134576040517f08c379a000000000000000000000000000000000000000000000000000000000815260040161012b90610f12565b60405180910390fd5b60003490506000803560f81c9050606060005b8260ff168160ff1610156109e0576000806000600160358502013560601c9250601560358502013591506035808502013560f81c9050806000811461019357600181146101c8576101f9565b604051955060028652737b79995e5f793a07bc00c21412e50ecae098e7f96020870152836040870152606086016040526101f9565b604051955060028652836020870152737b79995e5f793a07bc00c21412e50ecae098e7f96040870152606086016040525b50600060ff168160ff16036105f85781876102149190610f6b565b96506040517fd0e30db000000000000000000000000000000000000000000000000000000000815260008060048334737b79995e5f793a07bc00c21412e50ecae098e7f96113885a03f18061026857600380fd5b5050600073c532a74256d3db42d0bf7a0400fefdbad769400873ffffffffffffffffffffffffffffffffffffffff1663d06ca61f84886040518363ffffffff1660e01b81526004016102bb92919061109e565b600060405180830381865afa1580156102d8573d6000803e3d6000fd5b505050506040513d6000823e3d601f19601f820116820180604052508101906103019190611267565b600181518110610314576103136112b0565b5b602002602001015190506000737e0987e5b3a30e3f2828572bb659a548460a300373ffffffffffffffffffffffffffffffffffffffff1663e6a4390588600081518110610364576103636112b0565b5b6020026020010151896001815181106103805761037f6112b0565b5b60200260200101516040518363ffffffff1660e01b81526004016103a59291906112ee565b602060405180830381865afa1580156103c2573d6000803e3d6000fd5b505050506040513d601f19601f820116820180604052508101906103e69190611343565b905060008173ffffffffffffffffffffffffffffffffffffffff16630dfe16816040518163ffffffff1660e01b8152600401602060405180830381865afa158015610435573d6000803e3d6000fd5b505050506040513d601f19601f820116820180604052508101906104599190611343565b90506000737b79995e5f793a07bc00c21412e50ecae098e7f973ffffffffffffffffffffffffffffffffffffffff168273ffffffffffffffffffffffffffffffffffffffff16146104ab5760006104ae565b60015b90507fa9059cbb00000000000000000000000000000000000000000000000000000000607c52826080528560a0526000806044607c6000737b79995e5f793a07bc00c21412e50ecae098e7f96113885a03f18061050a57600380fd5b508273ffffffffffffffffffffffffffffffffffffffff1663022c0d9f60008360ff161461053957600061053b565b855b60018460ff161461054d57600061054f565b865b33600067ffffffffffffffff81111561056b5761056a6110f8565b5b6040519080825280601f01601f19166020018201604052801561059d5781602001600182028036833780820191505090505b506040518563ffffffff1660e01b81526004016105bd94939291906113ef565b600060405180830381600087803b1580156105d757600080fd5b505af11580156105eb573d6000803e3d6000fd5b50505050505050506109d0565b600160ff168160ff160361099857600073c532a74256d3db42d0bf7a0400fefdbad769400873ffffffffffffffffffffffffffffffffffffffff1663d06ca61f84886040518363ffffffff1660e01b815260040161065792919061109e565b600060405180830381865afa158015610674573d6000803e3d6000fd5b505050506040513d6000823e3d601f19601f8201168201806040525081019061069d9190611267565b6001815181106106b0576106af6112b0565b5b602002602001015190506000737e0987e5b3a30e3f2828572bb659a548460a300373ffffffffffffffffffffffffffffffffffffffff1663e6a4390588600081518110610700576106ff6112b0565b5b60200260200101518960018151811061071c5761071b6112b0565b5b60200260200101516040518363ffffffff1660e01b81526004016107419291906112ee565b602060405180830381865afa15801561075e573d6000803e3d6000fd5b505050506040513d601f19601f820116820180604052508101906107829190611343565b905060008173ffffffffffffffffffffffffffffffffffffffff16630dfe16816040518163ffffffff1660e01b8152600401602060405180830381865afa1580156107d1573d6000803e3d6000fd5b505050506040513d601f19601f820116820180604052508101906107f59190611343565b90506000737b79995e5f793a07bc00c21412e50ecae098e7f973ffffffffffffffffffffffffffffffffffffffff168273ffffffffffffffffffffffffffffffffffffffff161461084757600161084a565b60005b90507f23b872dd00000000000000000000000000000000000000000000000000000000607c52336080528260a0528560c0526000806064607c6000737b79995e5f793a07bc00c21412e50ecae098e7f96113885a03f1806108aa57600380fd5b508273ffffffffffffffffffffffffffffffffffffffff1663022c0d9f60008360ff16146108d95760006108db565b855b60018460ff16146108ed5760006108ef565b865b33600067ffffffffffffffff81111561090b5761090a6110f8565b5b6040519080825280601f01601f19166020018201604052801561093d5781602001600182028036833780820191505090505b506040518563ffffffff1660e01b815260040161095d94939291906113ef565b600060405180830381600087803b15801561097757600080fd5b505af115801561098b573d6000803e3d6000fd5b50505050505050506109cf565b600260ff168160ff16036109ce5781876109b29190610f6b565b965060008060008085876113885a03f1806109cc57600380fd5b505b5b5b5050508080600101915050610147565b508160ff166000546109f2919061143b565b831015610a34576040517f08c379a0000000000000000000000000000000000000000000000000000000008152600401610a2b906114c9565b60405180910390fd5b005b348015610a4257600080fd5b50610a5d6004803603810190610a589190611521565b610b98565b005b348015610a6b57600080fd5b50610a866004803603810190610a819190611563565b610c0f565b005b348015610a9457600080fd5b50610aaf6004803603810190610aaa91906115a5565b610d2b565b005b348015610abd57600080fd5b50610ac6610d8f565b604051610ad391906115d2565b60405180910390f35b348015610ae857600080fd5b50610af1610db5565b604051610afe91906115fc565b60405180910390f35b348015610b1357600080fd5b50610b2e6004803603810190610b299190611617565b610dc8565b604051610b3b9190611657565b60405180910390f35b348015610b5057600080fd5b50610b59610e11565b604051610b669190611657565b60405180910390f35b348015610b7b57600080fd5b50610b966004803603810190610b919190611563565b610e17565b005b600160009054906101000a900473ffffffffffffffffffffffffffffffffffffffff1673ffffffffffffffffffffffffffffffffffffffff163373ffffffffffffffffffffffffffffffffffffffff1614610bf257600080fd5b80600160146101000a81548160ff02191690831515021790555050565b600160009054906101000a900473ffffffffffffffffffffffffffffffffffffffff1673ffffffffffffffffffffffffffffffffffffffff163373ffffffffffffffffffffffffffffffffffffffff1614610c6957600080fd5b7f70a0823100000000000000000000000000000000000000000000000000000000607c5230608052602060006024607c846113885a03fa80610caa57600380fd5b6000805103610cb857600380fd5b6000517fa9059cbb00000000000000000000000000000000000000000000000000000000607c52336080528060a0526000806044607c6000876113885a03f1915081610d0357600380fd5b60004714610d265760008060008047336113885a03f1915081610d2557600380fd5b5b505050565b600160009054906101000a900473ffffffffffffffffffffffffffffffffffffffff1673ffffffffffffffffffffffffffffffffffffffff163373ffffffffffffffffffffffffffffffffffffffff1614610d8557600080fd5b8060008190555050565b600160009054906101000a900473ffffffffffffffffffffffffffffffffffffffff1681565b600160149054906101000a900460ff1681565b60007f70a0823100000000000000000000000000000000000000000000000000000000607c5282608052602060006024607c856113885a03fa80610e0b57600380fd5b60206000f35b60005481565b600160009054906101000a900473ffffffffffffffffffffffffffffffffffffffff1673ffffffffffffffffffffffffffffffffffffffff163373ffffffffffffffffffffffffffffffffffffffff1614610e7157600080fd5b80600160006101000a81548173ffffffffffffffffffffffffffffffffffffffff021916908373ffffffffffffffffffffffffffffffffffffffff16021790555050565b600082825260208201905092915050565b7f4d61696e74656e616e6365000000000000000000000000000000000000000000600082015250565b6000610efc600b83610eb5565b9150610f0782610ec6565b602082019050919050565b60006020820190508181036000830152610f2b81610eef565b9050919050565b6000819050919050565b7f4e487b7100000000000000000000000000000000000000000000000000000000600052601160045260246000fd5b6000610f7682610f32565b9150610f8183610f32565b9250828203905081811115610f9957610f98610f3c565b5b92915050565b610fa881610f32565b82525050565b600081519050919050565b600082825260208201905092915050565b6000819050602082019050919050565b600073ffffffffffffffffffffffffffffffffffffffff82169050919050565b600061100582610fda565b9050919050565b61101581610ffa565b82525050565b6000611027838361100c565b60208301905092915050565b6000602082019050919050565b600061104b82610fae565b6110558185610fb9565b935061106083610fca565b8060005b83811015611091578151611078888261101b565b975061108383611033565b925050600181019050611064565b5085935050505092915050565b60006040820190506110b36000830185610f9f565b81810360208301526110c58184611040565b90509392505050565b6000604051905090565b600080fd5b600080fd5b600080fd5b6000601f19601f8301169050919050565b7f4e487b7100000000000000000000000000000000000000000000000000000000600052604160045260246000fd5b611130826110e7565b810181811067ffffffffffffffff8211171561114f5761114e6110f8565b5b80604052505050565b60006111626110ce565b905061116e8282611127565b919050565b600067ffffffffffffffff82111561118e5761118d6110f8565b5b602082029050602081019050919050565b600080fd5b6111ad81610f32565b81146111b857600080fd5b50565b6000815190506111ca816111a4565b92915050565b60006111e36111de84611173565b611158565b905080838252602082019050602084028301858111156112065761120561119f565b5b835b8181101561122f578061121b88826111bb565b845260208401935050602081019050611208565b5050509392505050565b600082601f83011261124e5761124d6110e2565b5b815161125e8482602086016111d0565b91505092915050565b60006020828403121561127d5761127c6110d8565b5b600082015167ffffffffffffffff81111561129b5761129a6110dd565b5b6112a784828501611239565b91505092915050565b7f4e487b7100000000000000000000000000000000000000000000000000000000600052603260045260246000fd5b6112e881610ffa565b82525050565b600060408201905061130360008301856112df565b61131060208301846112df565b9392505050565b61132081610ffa565b811461132b57600080fd5b50565b60008151905061133d81611317565b92915050565b600060208284031215611359576113586110d8565b5b60006113678482850161132e565b91505092915050565b600081519050919050565b600082825260208201905092915050565b60005b838110156113aa57808201518184015260208101905061138f565b60008484015250505050565b60006113c182611370565b6113cb818561137b565b93506113db81856020860161138c565b6113e4816110e7565b840191505092915050565b60006080820190506114046000830187610f9f565b6114116020830186610f9f565b61141e60408301856112df565b818103606083015261143081846113b6565b905095945050505050565b600061144682610f32565b915061145183610f32565b925082820261145f81610f32565b9150828204841483151761147657611475610f3c565b5b5092915050565b7f466565206e6f7420706169640000000000000000000000000000000000000000600082015250565b60006114b3600c83610eb5565b91506114be8261147d565b602082019050919050565b600060208201905081810360008301526114e2816114a6565b9050919050565b60008115159050919050565b6114fe816114e9565b811461150957600080fd5b50565b60008135905061151b816114f5565b92915050565b600060208284031215611537576115366110d8565b5b60006115458482850161150c565b91505092915050565b60008135905061155d81611317565b92915050565b600060208284031215611579576115786110d8565b5b60006115878482850161154e565b91505092915050565b60008135905061159f816111a4565b92915050565b6000602082840312156115bb576115ba6110d8565b5b60006115c984828501611590565b91505092915050565b60006020820190506115e760008301846112df565b92915050565b6115f6816114e9565b82525050565b600060208201905061161160008301846115ed565b92915050565b6000806040838503121561162e5761162d6110d8565b5b600061163c8582860161154e565b925050602061164d8582860161154e565b9150509250929050565b600060208201905061166c6000830184610f9f565b9291505056fea264697066735822122086b0c02cce9c7e4c2c9b26cfcb8931e2ad0d17e92782fcdef017b8a4e29d46d964736f6c634300081c0033",
  "linkReferences": {},
  "deployedLinkReferences": {}
}